{
  "_format": "hh-sol-artifact-1",
  "contractName": "CrowdFunding",
  "sourceName": "contracts/CrowdFunding.sol",
  "abi": [
    {
      "inputs": [
        {
          "internalType": "address",
          "name": "token",
          "type": "address"
        }
      ],
      "stateMutability": "nonpayable",
      "type": "constructor"
    },
    {
      "inputs": [
        {
          "internalType": "uint256",
          "name": "_id",
          "type": "uint256"
        }
      ],
      "name": "CrowdFunding_cannotClaim",
      "type": "error"
    },
    {
      "inputs": [],
      "name": "CrowdFunding_crowdFundingActive",
      "type": "error"
    },
    {
      "inputs": [],
      "name": "CrowdFunding_hasClosed",
      "type": "error"
    },
    {
      "inputs": [],
      "name": "CrowdFunding_zeroAmount",
      "type": "error"
    },
    {
      "inputs": [
        {
          "internalType": "address",
          "name": "owner",
          "type": "address"
        }
      ],
      "name": "OwnableInvalidOwner",
      "type": "error"
    },
    {
      "inputs": [
        {
          "internalType": "address",
          "name": "account",
          "type": "address"
        }
      ],
      "name": "OwnableUnauthorizedAccount",
      "type": "error"
    },
    {
      "inputs": [
        {
          "internalType": "address",
          "name": "token",
          "type": "address"
        }
      ],
      "name": "SafeERC20FailedOperation",
      "type": "error"
    },
    {
      "anonymous": false,
      "inputs": [
        {
          "indexed": true,
          "internalType": "uint256",
          "name": "_index",
          "type": "uint256"
        },
        {
          "indexed": true,
          "internalType": "address",
          "name": "_contributor",
          "type": "address"
        },
        {
          "indexed": false,
          "internalType": "uint256",
          "name": "_amount",
          "type": "uint256"
        }
      ],
      "name": "ContributeMade",
      "type": "event"
    },
    {
      "anonymous": false,
      "inputs": [
        {
          "indexed": true,
          "internalType": "uint256",
          "name": "_index",
          "type": "uint256"
        },
        {
          "indexed": false,
          "internalType": "uint256",
          "name": "_targetAmount",
          "type": "uint256"
        },
        {
          "indexed": false,
          "internalType": "uint256",
          "name": "_duration",
          "type": "uint256"
        }
      ],
      "name": "CrowdFundingStarted",
      "type": "event"
    },
    {
      "anonymous": false,
      "inputs": [
        {
          "indexed": true,
          "internalType": "uint256",
          "name": "_index",
          "type": "uint256"
        },
        {
          "indexed": false,
          "internalType": "uint256",
          "name": "_amount",
          "type": "uint256"
        }
      ],
      "name": "FundsClaimed",
      "type": "event"
    },
    {
      "anonymous": false,
      "inputs": [
        {
          "indexed": true,
          "internalType": "address",
          "name": "previousOwner",
          "type": "address"
        },
        {
          "indexed": true,
          "internalType": "address",
          "name": "newOwner",
          "type": "address"
        }
      ],
      "name": "OwnershipTransferred",
      "type": "event"
    },
    {
      "inputs": [
        {
          "internalType": "uint256",
          "name": "_id",
          "type": "uint256"
        }
      ],
      "name": "claimFunds",
      "outputs": [],
      "stateMutability": "nonpayable",
      "type": "function"
    },
    {
      "inputs": [
        {
          "internalType": "uint256",
          "name": "_id",
          "type": "uint256"
        },
        {
          "internalType": "uint256",
          "name": "_amount",
          "type": "uint256"
        }
      ],
      "name": "contribute",
      "outputs": [],
      "stateMutability": "nonpayable",
      "type": "function"
    },
    {
      "inputs": [
        {
          "internalType": "uint256",
          "name": "_id",
          "type": "uint256"
        }
      ],
      "name": "getCrowdFundingDeadline",
      "outputs": [
        {
          "internalType": "uint256",
          "name": "",
          "type": "uint256"
        }
      ],
      "stateMutability": "view",
      "type": "function"
    },
    {
      "inputs": [
        {
          "internalType": "uint256",
          "name": "_id",
          "type": "uint256"
        }
      ],
      "name": "getCrowdFundingProgress",
      "outputs": [
        {
          "internalType": "uint256",
          "name": "",
          "type": "uint256"
        },
        {
          "internalType": "uint256",
          "name": "",
          "type": "uint256"
        }
      ],
      "stateMutability": "view",
      "type": "function"
    },
    {
      "inputs": [
        {
          "internalType": "uint256",
          "name": "_id",
          "type": "uint256"
        }
      ],
      "name": "getCrowdFundingStatus",
      "outputs": [
        {
          "internalType": "bool",
          "name": "",
          "type": "bool"
        }
      ],
      "stateMutability": "view",
      "type": "function"
    },
    {
      "inputs": [],
      "name": "getCrowdFundingToken",
      "outputs": [
        {
          "internalType": "address",
          "name": "",
          "type": "address"
        }
      ],
      "stateMutability": "view",
      "type": "function"
    },
    {
      "inputs": [
        {
          "internalType": "uint256",
          "name": "_id",
          "type": "uint256"
        },
        {
          "internalType": "address",
          "name": "_user",
          "type": "address"
        }
      ],
      "name": "getUserContribution",
      "outputs": [
        {
          "internalType": "uint256",
          "name": "",
          "type": "uint256"
        }
      ],
      "stateMutability": "view",
      "type": "function"
    },
    {
      "inputs": [],
      "name": "i_token",
      "outputs": [
        {
          "internalType": "contract IERC20",
          "name": "",
          "type": "address"
        }
      ],
      "stateMutability": "view",
      "type": "function"
    },
    {
      "inputs": [],
      "name": "index",
      "outputs": [
        {
          "internalType": "uint256",
          "name": "",
          "type": "uint256"
        }
      ],
      "stateMutability": "view",
      "type": "function"
    },
    {
      "inputs": [],
      "name": "owner",
      "outputs": [
        {
          "internalType": "address",
          "name": "",
          "type": "address"
        }
      ],
      "stateMutability": "view",
      "type": "function"
    },
    {
      "inputs": [],
      "name": "renounceOwnership",
      "outputs": [],
      "stateMutability": "nonpayable",
      "type": "function"
    },
    {
      "inputs": [
        {
          "internalType": "uint256",
          "name": "_id",
          "type": "uint256"
        }
      ],
      "name": "repayToken",
      "outputs": [
        {
          "internalType": "bool",
          "name": "",
          "type": "bool"
        }
      ],
      "stateMutability": "nonpayable",
      "type": "function"
    },
    {
      "inputs": [
        {
          "internalType": "uint256",
          "name": "",
          "type": "uint256"
        }
      ],
      "name": "s_projects",
      "outputs": [
        {
          "internalType": "uint256",
          "name": "targetAmount",
          "type": "uint256"
        },
        {
          "internalType": "uint256",
          "name": "deadline",
          "type": "uint256"
        },
        {
          "internalType": "uint256",
          "name": "raisedAmount",
          "type": "uint256"
        },
        {
          "internalType": "bool",
          "name": "isCrowdFundingActive",
          "type": "bool"
        },
        {
          "internalType": "uint256",
          "name": "lastContributorIndex",
          "type": "uint256"
        }
      ],
      "stateMutability": "view",
      "type": "function"
    },
    {
      "inputs": [
        {
          "internalType": "uint256",
          "name": "_target",
          "type": "uint256"
        },
        {
          "internalType": "uint256",
          "name": "_d",
          "type": "uint256"
        }
      ],
      "name": "startCrowdFunding",
      "outputs": [],
      "stateMutability": "nonpayable",
      "type": "function"
    },
    {
      "inputs": [
        {
          "internalType": "address",
          "name": "newOwner",
          "type": "address"
        }
      ],
      "name": "transferOwnership",
      "outputs": [],
      "stateMutability": "nonpayable",
      "type": "function"
    }
  ],
  "bytecode": "0x60a060405234801561001057600080fd5b5060405161172038038061172083398181016040528101906100329190610216565b33600073ffffffffffffffffffffffffffffffffffffffff168173ffffffffffffffffffffffffffffffffffffffff16036100a55760006040517f1e4fbdf700000000000000000000000000000000000000000000000000000000815260040161009c9190610252565b60405180910390fd5b6100b4816100ef60201b60201c565b508073ffffffffffffffffffffffffffffffffffffffff1660808173ffffffffffffffffffffffffffffffffffffffff16815250505061026d565b60008060009054906101000a900473ffffffffffffffffffffffffffffffffffffffff169050816000806101000a81548173ffffffffffffffffffffffffffffffffffffffff021916908373ffffffffffffffffffffffffffffffffffffffff1602179055508173ffffffffffffffffffffffffffffffffffffffff168173ffffffffffffffffffffffffffffffffffffffff167f8be0079c531659141344cd1fd0a4f28419497f9722a3daafe3b4186f6b6457e060405160405180910390a35050565b600080fd5b600073ffffffffffffffffffffffffffffffffffffffff82169050919050565b60006101e3826101b8565b9050919050565b6101f3816101d8565b81146101fe57600080fd5b50565b600081519050610210816101ea565b92915050565b60006020828403121561022c5761022b6101b3565b5b600061023a84828501610201565b91505092915050565b61024c816101d8565b82525050565b60006020820190506102676000830184610243565b92915050565b60805161147c6102a46000396000818161046b0152818161059e01528181610848015281816108be0152610ebf015261147c6000f3fe608060405234801561001057600080fd5b50600436106100f55760003560e01c8063762c224f116100975780639608b232116100665780639608b2321461028b5780639fb0f9be146102a9578063a6b17405146102d9578063f2fde38b146102f5576100f5565b8063762c224f146102025780637a61b5f5146102205780638c590917146102515780638da5cb5b1461026d576100f5565b80635117e338116100d35780635117e338146101645780635c706176146101945780635f7b074b146101c4578063715018a6146101f8576100f5565b806312eebfde146100fa5780631b55e3381461012a5780632986c0e514610146575b600080fd5b610114600480360381019061010f9190611054565b610311565b6040516101219190611090565b60405180910390f35b610144600480360381019061013f9190611054565b610331565b005b61014e6104b2565b60405161015b9190611090565b60405180910390f35b61017e60048036038101906101799190611109565b6104b8565b60405161018b9190611090565b60405180910390f35b6101ae60048036038101906101a99190611054565b610516565b6040516101bb9190611164565b60405180910390f35b6101de60048036038101906101d99190611054565b610543565b6040516101ef95949392919061117f565b60405180910390f35b610200610586565b005b61020a61059a565b60405161021791906111e1565b60405180910390f35b61023a60048036038101906102359190611054565b6105c2565b6040516102489291906111fc565b60405180910390f35b61026b60048036038101906102669190611225565b6105fc565b005b610275610893565b60405161028291906111e1565b60405180910390f35b6102936108bc565b6040516102a091906112c4565b60405180910390f35b6102c360048036038101906102be9190611054565b6108e0565b6040516102d09190611164565b60405180910390f35b6102f360048036038101906102ee9190611225565b6109b3565b005b61030f600480360381019061030a91906112df565b610ac2565b005b600060016000838152602001908152602001600020600101549050919050565b610339610b48565b6001600082815260200190815260200160002060000154600160008381526020019081526020016000206002015410806103885750600160008281526020019081526020016000206001015442105b156103ca57806040517f03bb39680000000000000000000000000000000000000000000000000000000081526004016103c19190611090565b60405180910390fd5b60006001600083815260200190815260200160002060030160006101000a81548160ff021916908315150217905550807ff5113038110e08c7fac91012f7b68c6010271f7653a75b250e714f6d1e2d7590600160008481526020019081526020016000206002015460405161043f9190611090565b60405180910390a26104af610452610893565b60016000848152602001908152602001600020600201547f000000000000000000000000000000000000000000000000000000000000000073ffffffffffffffffffffffffffffffffffffffff16610bcf9092919063ffffffff16565b50565b60025481565b60006001600084815260200190815260200160002060050160008373ffffffffffffffffffffffffffffffffffffffff1673ffffffffffffffffffffffffffffffffffffffff16815260200190815260200160002054905092915050565b60006001600083815260200190815260200160002060030160009054906101000a900460ff169050919050565b60016020528060005260406000206000915090508060000154908060010154908060020154908060030160009054906101000a900460ff16908060040154905085565b61058e610b48565b6105986000610c4e565b565b60007f0000000000000000000000000000000000000000000000000000000000000000905090565b6000806001600084815260200190815260200160002060020154600160008581526020019081526020016000206000015491509150915091565b8060008103610637576040517f4bfa707300000000000000000000000000000000000000000000000000000000815260040160405180910390fd5b8260016000828152602001908152602001600020600101544210610687576040517ff9fcdd3d00000000000000000000000000000000000000000000000000000000815260040160405180910390fd5b60006001600086815260200190815260200160002060050160003373ffffffffffffffffffffffffffffffffffffffff1673ffffffffffffffffffffffffffffffffffffffff168152602001908152602001600020540361075a5760016000858152602001908152602001600020600601339080600181540180825580915050600190039060005260206000200160009091909190916101000a81548173ffffffffffffffffffffffffffffffffffffffff021916908373ffffffffffffffffffffffffffffffffffffffff1602179055505b826001600086815260200190815260200160002060050160003373ffffffffffffffffffffffffffffffffffffffff1673ffffffffffffffffffffffffffffffffffffffff16815260200190815260200160002060008282546107bd919061133b565b92505081905550826001600086815260200190815260200160002060020160008282546107ea919061133b565b925050819055503373ffffffffffffffffffffffffffffffffffffffff16847fc229f59e2528b21d48714cbc144c9e5f2d9de73e471e8ef01f5d3bd649e17a8f856040516108389190611090565b60405180910390a361088d3330857f000000000000000000000000000000000000000000000000000000000000000073ffffffffffffffffffffffffffffffffffffffff16610d12909392919063ffffffff16565b50505050565b60008060009054906101000a900473ffffffffffffffffffffffffffffffffffffffff16905090565b7f000000000000000000000000000000000000000000000000000000000000000081565b60006108ea610b48565b6001600083815260200190815260200160002060000154600160008481526020019081526020016000206002015410801561093b575060016000838152602001908152602001600020600101544210155b801561096757506001600083815260200190815260200160002060030160009054906101000a900460ff165b1561097c5761097582610d94565b90506109ae565b6040517f674bd66400000000000000000000000000000000000000000000000000000000815260040160405180910390fd5b919050565b6109bb610b48565b816001600060025481526020019081526020016000206000018190555080426109e4919061133b565b600160006002548152602001908152602001600020600101819055506000600160006002548152602001908152602001600020600201819055506001806000600254815260200190815260200160002060030160006101000a81548160ff0219169083151502179055506000600160006002548152602001908152602001600020600401819055506002547f61232d238bd6d1616985c3dbf0af28cc7e02f1e939fd25046a0d0a1af99e35618383604051610aa09291906111fc565b60405180910390a2600260008154610ab79061136f565b919050819055505050565b610aca610b48565b600073ffffffffffffffffffffffffffffffffffffffff168173ffffffffffffffffffffffffffffffffffffffff1603610b3c5760006040517f1e4fbdf7000000000000000000000000000000000000000000000000000000008152600401610b3391906111e1565b60405180910390fd5b610b4581610c4e565b50565b610b50610f6f565b73ffffffffffffffffffffffffffffffffffffffff16610b6e610893565b73ffffffffffffffffffffffffffffffffffffffff1614610bcd57610b91610f6f565b6040517f118cdaa7000000000000000000000000000000000000000000000000000000008152600401610bc491906111e1565b60405180910390fd5b565b610c49838473ffffffffffffffffffffffffffffffffffffffff1663a9059cbb8585604051602401610c029291906113b7565b604051602081830303815290604052915060e01b6020820180517bffffffffffffffffffffffffffffffffffffffffffffffffffffffff8381831617835250505050610f77565b505050565b60008060009054906101000a900473ffffffffffffffffffffffffffffffffffffffff169050816000806101000a81548173ffffffffffffffffffffffffffffffffffffffff021916908373ffffffffffffffffffffffffffffffffffffffff1602179055508173ffffffffffffffffffffffffffffffffffffffff168173ffffffffffffffffffffffffffffffffffffffff167f8be0079c531659141344cd1fd0a4f28419497f9722a3daafe3b4186f6b6457e060405160405180910390a35050565b610d8e848573ffffffffffffffffffffffffffffffffffffffff166323b872dd868686604051602401610d47939291906113e0565b604051602081830303815290604052915060e01b6020820180517bffffffffffffffffffffffffffffffffffffffffffffffffffffffff8381831617835250505050610f77565b50505050565b600080600160008481526020019081526020016000206006018054905090506000600160008581526020019081526020016000206004015490506000826101f483610ddf919061133b565b11610df7576101f482610df2919061133b565b610df9565b825b905060008290505b81811015610f10576000600160008881526020019081526020016000206006018281548110610e3357610e32611417565b5b9060005260206000200160009054906101000a900473ffffffffffffffffffffffffffffffffffffffff16905060006001600089815260200190815260200160002060050160008373ffffffffffffffffffffffffffffffffffffffff1673ffffffffffffffffffffffffffffffffffffffff168152602001908152602001600020549050610f0382827f000000000000000000000000000000000000000000000000000000000000000073ffffffffffffffffffffffffffffffffffffffff16610bcf9092919063ffffffff16565b8260010192505050610e01565b5082811493508060016000878152602001908152602001600020600401819055508315610f675760006001600087815260200190815260200160002060030160006101000a81548160ff0219169083151502179055505b505050919050565b600033905090565b600080602060008451602086016000885af180610f9a576040513d6000823e3d81fd5b3d925060005191505060008214610fb5576001811415610fd1565b60008473ffffffffffffffffffffffffffffffffffffffff163b145b1561101357836040517f5274afe700000000000000000000000000000000000000000000000000000000815260040161100a91906111e1565b60405180910390fd5b50505050565b600080fd5b6000819050919050565b6110318161101e565b811461103c57600080fd5b50565b60008135905061104e81611028565b92915050565b60006020828403121561106a57611069611019565b5b60006110788482850161103f565b91505092915050565b61108a8161101e565b82525050565b60006020820190506110a56000830184611081565b92915050565b600073ffffffffffffffffffffffffffffffffffffffff82169050919050565b60006110d6826110ab565b9050919050565b6110e6816110cb565b81146110f157600080fd5b50565b600081359050611103816110dd565b92915050565b600080604083850312156111205761111f611019565b5b600061112e8582860161103f565b925050602061113f858286016110f4565b9150509250929050565b60008115159050919050565b61115e81611149565b82525050565b60006020820190506111796000830184611155565b92915050565b600060a0820190506111946000830188611081565b6111a16020830187611081565b6111ae6040830186611081565b6111bb6060830185611155565b6111c86080830184611081565b9695505050505050565b6111db816110cb565b82525050565b60006020820190506111f660008301846111d2565b92915050565b60006040820190506112116000830185611081565b61121e6020830184611081565b9392505050565b6000806040838503121561123c5761123b611019565b5b600061124a8582860161103f565b925050602061125b8582860161103f565b9150509250929050565b6000819050919050565b600061128a611285611280846110ab565b611265565b6110ab565b9050919050565b600061129c8261126f565b9050919050565b60006112ae82611291565b9050919050565b6112be816112a3565b82525050565b60006020820190506112d960008301846112b5565b92915050565b6000602082840312156112f5576112f4611019565b5b6000611303848285016110f4565b91505092915050565b7f4e487b7100000000000000000000000000000000000000000000000000000000600052601160045260246000fd5b60006113468261101e565b91506113518361101e565b92508282019050808211156113695761136861130c565b5b92915050565b600061137a8261101e565b91507fffffffffffffffffffffffffffffffffffffffffffffffffffffffffffffffff82036113ac576113ab61130c565b5b600182019050919050565b60006040820190506113cc60008301856111d2565b6113d96020830184611081565b9392505050565b60006060820190506113f560008301866111d2565b61140260208301856111d2565b61140f6040830184611081565b949350505050565b7f4e487b7100000000000000000000000000000000000000000000000000000000600052603260045260246000fdfea26469706673582212209bf22f5b77932582a1a710edabc9c247713a820758232472dd065c945caf0dbc64736f6c634300081c0033",
  "linkReferences": {},
  "deployedLinkReferences": {}
}